:06072C00011F00011E0088
:10051A00E4F5091206D21206EE1205A71206878022
:10052A002C781FE61460FA24F1601824DF60F224A4
:10053A00317020781F76011204CBEF70E4781F76B1
:10054A003180DE1207547821EFF6120623E4781F71
:09055A00F680CEE4781FF680C89B
:1006D200B2C2120714B2C2120714B2C2120714B283
:0C06E200C2120714B2C2120714B2C222E6
:1006EE007580FF7590FF75A0FF75B0FF75C0FFC2D6
:0806FE00C3D289D2A8D2AF22B9
:0A07210000007F057E49DEFEDFFCCC
:01072B0022AB
:0806AE008F148E138D128C11C4
:1006B600E4F515F516F517F518781174FF120016FE
:0B06C600EC4D4E4F600512072180EE46
:0106D1002206
:0C0714007F117ED07D1BDDFEDEFCDFFAD5
:0107200022B6
:030003000205E80B
:1005E800C0E0C0F0C083C082C0D075D000C000C0D9
:1005F80001C002C003C004C005C006C00712023A09
:10060800D007D006D005D004D003D002D001D00046
:0B061800D0D0D082D083D0F0D0E032F0
:10062300EF7006751E01C2C222E51E6401702BF530
:100633001ED2C2EF24FE6011146012146013146002
:1006430014240470157F01800E7F02800A7F0380CB
:0B065300067F0480027F0512070622CC
:1003EE007469616F206C69616F000000000000008D
:1003FE0000000000796F7500000000000000000092
:10040E00000000000000000079616E000000000096
:10041E0000000000000000000000000063750000F6
:10042E0000000000000000000000000000000000BE
:10043E00686F6E67207368616F20726F75000000C1
:10044E00000000006B65206C65206A692063686996
:0E045E00000000000000000000010203040581
:1005A700D2B57F057E007D007C001206AEC2B57F06
:1005B700057E007D007C001206AED2B57F057E0069
:1005C7007D007C001206AEC2A17F057E007D007C07
:1005D700001206AED2A17F057E007D007C000206D8
:0105E700AE65
:100102007F061207427D357F171207377F0A7E006E
:100112007D007C001206AE7F061207427D037F89B6
:100122001207377F057E007D007C001206AE7D43FC
:100132007FCF1207377F057E007D007C001206AE5E
:100142007D027FCB1207377D0A7F11120737E4FD4C
:100152007F1E1207377D3F7F191207377D487F1BAD
:100162001207377D1F7F1D1207377F0A7E007D0031
:100172007C001206AE7D047FCD1207377F057E001C
:100182007D007C001206AEE4FD7FB91207377D4F79
:0C0192007FCF1207377DFF7F6F02073719
:10046C00120102E4FD7FBD1207377D487F1712078A
:10047C00377F0A7E007D007C001206AE7D807F3CBB
:10048C001207377D077F3E1207377DFF7F38120733
:10049C00377D077F3A120737E4FD7F401207377D1F
:1004AC00087F42120737E4FD7F441207377D087F2F
:0F04BC00461207377F017E007D007C000206AEEE
:10023A00E4F508C2A87F2B1207427820A607E4FD3E
:10024A007F29120737E4FD7F021207377820E6304C
:10025A00E42D7FB2120742EF642170237FBF120799
:10026A0042BF351B7FBA1207428F08E508D39400B4
:10027A00400DE508D394045006781F761080047860
:10028A001F7611E4FD7F2B120737E4FD7F1C12074E
:10029A0037E4FD7F29120737E4FD7F02120737E4AE
:1002AA00FD7F2B120737E4FD7FBA120737E4FD7F83
:1002BA00BC1207377D017F08120737E4FD7F081259
:0402CA000737D2A878
:0102CE00220D
:1004CB00E4F50AF50BF50A12075A7F327E007D0020
:1004DB007C001206AE12019EEF700280117F0A7E25
:1004EB00007D007C001206AE1202CFEF70101205D9
:1004FB00A77F327E007D007C001206AE8005750B57
:0E050B00018009050AE50AC3940540BBAF0B49
:0105190022BF
:10065E00E4F510F50F7FB2120742BF2105751001A8
:10066E0080147F0A7E007D007C001206AE050FE529
:08067E000FC3940A40DFAF1026
:010686002251
:03075A0002046C2A
:1002CF00C2A87D707F351207377D097F1C12073753
:1002DF007D207FBD1207377D017F081207377F0111
:1002EF007E007D007C001206AEE4FD7F081207370A
:1002FF007F017E007D007C001206AE12065EEF705D
:10030F0002FF227D0B7F1C1207377DFF7FB2120782
:10031F00377F017E007D007C001206AE7D067F37A1
:10032F001207377F017E007D007C001206AE7D062E
:10033F007F371207377F057E007D007C001206AEE7
:10034F007D107F29120737E4FD7FBD120737D2A832
:03035F007F0122F9
:10019E00750D01E4F50C12065EEF7005F50D020209
:1001AE0037E50C90046693FD7FC1120737E4FD7F9F
:1001BE00C31207377D047F081207377F017E007D4B
:1001CE00007C001206AEE4FD7F081207377F017E29
:1001DE00007D007C001206AEE4F50EE50C75F01401
:1001EE00A424EEF582E43403F583E582250EF58230
:1001FE00E43583F583E493FD600E7F051207370522
:10020E000EE50EC3941440D3AD0E7FB91207377DA1
:10021E00FF7FB21207377D047F37120737050CE5D3
:0B022E000CC3940650030201A4AF0DA6
:0102390022A2
:060754007FC512074222DE
:0B073700908100EFF0908000EDF022B8
:0B074200908100EFF0908000E0FF22AB
:04073200021C258000
:10068700759850758920AE1CAF1DAB07AA06E4F913
:10069700F8FF7EE1FDFC1205631200068F8B8F8D3C
:0706A700D28ED2ACD2AF22CB
:0E070600C2ACC2998F993099FDC299D2AC2233
:07074D008B198A1A891B2297
:0300000002036296
:0C036200787FE4F6D8FD7581210203A924
:10056300C2D5E830E70FB2D5E4C39BFBE49AFAE4C3
:1005730099F9E498F8EC30E717B2D512059912000F
:1005830070E4C39BFBE49AFAE499F9E498F88003D6
:1005930012007030D50DE4C39FFFE49EFEE49DFD81
:0405A300E49CFC22B6
:0E000600C3E49FFFE49EFEE49DFDE49CFC220B
:100014007401FF3395E0FEFDFC080808E6CF2FF6D7
:1000240018E6CE3EF618E6CD3DF618E6CC3CF622B0
:10036E0002051AE493A3F8E493A34003F68001F286
:10037E0008DFF48029E493A3F85407240CC8C33390
:10038E00C4540F4420C8834004F456800146F6DF5F
:10039E00E4800B010204081020408090072CE47EBC
:1003AE00019360BCA3FF543F30E509541FFEE49354
:1003BE00A360010ECF54C025E060A840B8E493A31B
:1003CE00FAE493A3F8E493A3C8C582C8CAC583CA46
:1003DE00F0A3C8C582C8CAC583CADFE9DEE780BEFE
:0107360000C2
:1000340075F008758200EF2FFFEE33FECD33CDCC83
:1000440033CCC58233C5829BED9AEC99E582984006
:100054000CF582EE9BFEED9AFDEC99FC0FD5F0D6E3
:10006400E4CEFBE4CDFAE4CCF9A88222B800C1B90D
:100074000059BA002DEC8BF084CFCECDFCE5F0CB4B
:10008400F97818EF2FFFEE33FEED33FDEC33FCEB84
:1000940033FB10D703994004EB99FB0FD8E5E4F93F
:1000A400FA227818EF2FFFEE33FEED33FDEC33FC2C
:1000B400C933C910D7059BE99A4007EC9BFCE99A20
:1000C400F90FD8E0E4C9FAE4CCFB2275F010EF2F65
:1000D400FFEE33FEED33FDCC33CCC833C810D70765
:1000E4009BEC9AE899400AED9BFDEC9AFCE899F8A0
:0E00F4000FD5F0DAE4CDFBE4CCFAE4C8F92233
:00000001FF
